:100000000C9434000C9440000C943E000C943E0080
:100010000C943E000C943E000C943E000C943E0068
:100020000C943E000C943E000C943E000C943E0058
:100030000C943E000C943E000C943E000C943E0048
:100040000C943E000C943E000C943E000C943E0038
:100050000C943E000C943E000C943E000C943E0028
:100060000C943E000C943E0011241FBECFEFD8E04C
:10007000DEBFCDBF0E944F000C945F000C940000C7
:100080001F920F920FB60F9211248F9385B18F5F3D
:1000900085B98F910F900FBE0F901F9018955298B1
:1000A0008FE384B9809169008260809369008091B8
:1000B00069008160809369007894E89AFFCFF89492
:0200C000FFCF70
:00000001FF
