:100000000C9434000C9440000C945D000C943E0061
:100010000C943E000C943E000C943E000C943E0068
:100020000C943E000C943E000C943E000C943E0058
:100030000C943E000C943E000C943E000C943E0048
:100040000C943E000C943E000C943E000C943E0038
:100050000C943E000C943E000C943E000C943E0028
:100060000C943E000C943E0011241FBECFEFD8E04C
:10007000DEBFCDBF0E9479000C9494000C94000068
:100080001F920F920FB60F9211242F938F939F936D
:1000900085B1880F85B9289A2FEF81EE94E0215021
:1000A00080409040E1F700C000009F918F912F9118
:1000B0000F900FBE0F901F9018951F920F920FB6C2
:1000C0000F9211242F938F939F9385B1880F85B939
:1000D0002FEF81EE94E0215080409040E1F700C086
:1000E00000009F918F912F910F900FBE0F901F9046
:1000F000189552988FE384B980916900826080934B
:100100006900809169008160809369008091690035
:1001100084608093690080916900886080936900A1
:0C0120007894E89AE99AFFCFF894FFCF9A
:00000001FF
