:100000000C9434000C943E000C943E000C943E0082
:100010000C943E000C943E000C943E000C943E0068
:100020000C943E000C943E000C943E000C943E0058
:100030000C943E000C943E000C943E000C943E0048
:100040000C943E000C943E000C943E000C943E0038
:100050000C943E000C943E000C943E000C943E0028
:100060000C943E000C943E0011241FBECFEFD8E04C
:10007000DEBFCDBF0E9440000C9480000C940000B5
:1000800084B18FEF84B961E070E082E090E045B127
:100090009B01082E01C0220F0A94EAF7342F322B5D
:1000A00035B94FEF53ECE9E041505040E040E1F703
:1000B00000C0000035B12095232325B90196863074
:1000C000910529F785E090E045B19B01082E01C01C
:1000D000220F0A94EAF7342F322B35B94FEF53EC45
:1000E000E9E041505040E040E1F700C0000035B188
:1000F0002095232325B901978230910529F7C5CF93
:04010000F894FFCFA1
:00000001FF
