:100000000C9434000C943E000C943E000C943E0082
:100010000C943E000C943E000C943E000C943E0068
:100020000C943E000C943E000C943E000C943E0058
:100030000C943E000C943E000C943E000C943E0048
:100040000C943E000C943E000C943E000C943E0038
:100050000C943E000C943E000C943E000C943E0028
:100060000C943E000C943E0011241FBECFEFD8E04C
:10007000DEBFCDBF0E9440000C946D000C940000C8
:1000800084B18C6384B961E070E02A9A2B9A2C9A2F
:100090002D9A2FEF83ED90E3215080409040E1F7BF
:1000A00000C0000082E090E035B1AB01082E01C035
:1000B000440F0A94EAF7242F2095232325B90196AB
:1000C0008630910589F72FEF83ED90E32150804032
:0E00D0009040E1F700C00000D8CFF894FFCFB9
:00000001FF
