:100000000C9434000C943E000C943E000C943E0082
:100010000C943E000C943E000C943E000C943E0068
:100020000C943E000C943E000C943E000C943E0058
:100030000C943E000C943E000C943E000C943E0048
:100040000C943E000C943E000C943E000C943E0038
:100050000C943E000C943E000C943E000C943E0028
:100060000C943E000C943E0011241FBECFEFD8E04C
:10007000DEBFCDBF0E9441000C946D000C940000C7
:100080000895569A84B5826084BD84B5816084BD2C
:1000900084B5806884BD17BC83E085BD789420E07A
:1000A00030E080E090E04FEF51EE64E0415050408E
:1000B0006040E1F700C00000009751F08F3F9105CC
:1000C00019F02130310531F4019721E030E003C00F
:0E00D00020E030E0019687BDE6CFF894FFCF28
:00000001FF
