:100000000C9434000C943E000C943E000C943E0082
:100010000C943E000C943E000C943E000C943E0068
:100020000C943E000C943E000C943E000C943E0058
:100030000C943E000C943E000C943E000C943E0048
:100040000C943E000C943E000C943E000C943E0038
:100050000C943E000C943E000C943E000C943E0028
:100060000C943E000C943E0011241FBECFEFD8E04C
:10007000DEBFCDBF0E9440000C947A000C940000BB
:10008000569A84B5826084BD84B5816084BD84B590
:10009000806884BD84EB87BD789432E023E094E0EF
:1000A00085E035BD4FEF53ED60E341505040604077
:1000B000E1F700C0000025BD4FEF53ED60E3415074
:1000C00050406040E1F700C0000095BD4FEF53ED98
:1000D00060E3415050406040E1F700C0000085BD42
:1000E0004FEF53ED60E3415050406040E1F700C0F6
:0800F0000000D7CFF894FFCF08
:00000001FF
