:100000000C9434000C9449000C9449000C94490061
:100010000C9449000C9449000C9449000C9449003C
:100020000C9449000C9449000C9449000C9449002C
:100030000C9449000C9449000C9449000C9449001C
:100040000C9449000C9449000C9449000C9449000C
:100050000C9449000C9449000C9449000C944900FC
:100060000C9449000C94490011241FBECFEFD8E036
:10007000DEBFCDBF11E0A0E0B1E0ECE3F1E002C0F3
:1000800005900D92AC32B107D9F70E9481000C9413
:100090009C000C9400009093C5008093C40088E1FC
:1000A0008093C10086E08093C2000895DC01FC01CA
:1000B00001900020E9F73197E81BF90BAD01481BCF
:1000C000590B4E175F0798F42091C00025FFFCCF15
:1000D0002D912093C600FC0101900020E9F79F01BB
:1000E000281B390B225031092417350701F72FEF50
:1000F00039E648E1215030404040E1F700C00000BF
:10010000D5CFCF93DF93CDB7DEB7AB970FB6F894CB
:10011000DEBF0FBECDBF87E690E00E944B008BE2B2
:10012000E0E0F1E0DE01119601900D928A95E1F791
:0C013000CE0101960E945600F894FFCF0B
:10013C00453135323039204B6974686D612C20455E
:10014C00313531333820497266616E2C204531359A
:0C015C003330372052697368690A0000D4
:00000001FF
