:100000000C9434000C943E000C943E000C943E0082
:100010000C943E000C943E000C943E000C943E0068
:100020000C943E000C943E000C943E000C943E0058
:100030000C943E000C943E000C943E000C943E0048
:100040000C943E000C943E000C943E000C943E0038
:100050000C943E000C943E000C943E000C943E0028
:100060000C943E000C943E0011241FBECFEFD8E04C
:10007000DEBFCDBF0E9472000C94BB000C94000048
:10008000F999FECF92BD81BDF89A80B50895F9998E
:10009000FECF92BD81BD60BDFA9AF99A0895909302
:1000A000C5008093C40088E18093C10086E08093FE
:1000B000C20008959091C10098609093C100809310
:1000C000C6008091C00085FFFCCF08958091C100DB
:1000D00080618093C1008091C00087FFFCCF809138
:1000E000C6000895CF93DF93CDB7DEB7D4500FB6D7
:1000F000F894DEBF0FBECDBF87E690E00E944F00B0
:10010000FC98FD98E12CF12C00E010E00E946600C4
:10011000CC24C394D12CCC0EDD1EC00ED11E0115F3
:10012000F4E01F0751F08D3041F0F60181936F012B
:100130000E9466000F5F1F4FF2CFCC24C394D12CD6
:10014000CC0EDD1ECE0CDF1CE016F10654F4F601D9
:1001500061916F01C7010E944700FFEFEF1AFF0A8C
:10016000F3CF8FE60E945A008BE60E945A008AE085
:0A0170000E945A00CBCFF894FFCF95
:00000001FF
