:100000000C9434000C943E000C943E000C943E0082
:100010000C943E000C943E000C943E000C943E0068
:100020000C943E000C943E000C943E000C943E0058
:100030000C943E000C943E000C943E000C943E0048
:100040000C943E000C943E000C943E000C943E0038
:100050000C943E000C943E000C943E000C943E0028
:100060000C943E000C943E0011241FBECFEFD8E04C
:10007000DEBFCDBF0E9472000C9491000C94000072
:10008000F999FECF92BD81BDF89A80B50895F9998E
:10009000FECF92BD81BD60BDFA9AF99A0895909302
:1000A000C5008093C40088E18093C10086E08093FE
:1000B000C20008959091C10098609093C100809310
:1000C000C6008091C00085FFFCCF08958091C100DB
:1000D00080618093C1008091C00087FFFCCF809138
:1000E000C600089587E690E00E944F00FC98FD98B6
:1000F000C0E0D0E0CE010E9440000E945A0021964C
:10010000C11524E0D207B1F78AE00E945A008FEFB0
:1001100093ED20E3815090402040E1F700C00000C3
:06012000E7CFF894FFCFC9
:00000001FF
