:100000000C9434000C943E000C943E000C943E0082
:100010000C943E000C943E000C943E000C943E0068
:100020000C943E000C943E000C943E000C943E0058
:100030000C943E000C943E000C943E000C943E0048
:100040000C943E000C943E000C943E000C943E0038
:100050000C943E000C943E000C943E000C943E0028
:100060000C943E000C943E0011241FBECFEFD8E04C
:10007000DEBFCDBF0E9440000C9475000C940000C0
:10008000399817B88FEF84B98AB980917A0080685F
:1000900080937A0080917A00876080937A008091C3
:1000A0007C00806480937C0080917C008F778093BB
:1000B0007C0080917C00816080937C0080917A003C
:1000C000806480937A0080917C00806280937C00C1
:1000D00080917A00806480937A0080917A0084FF16
:0E00E000FCCF809179008BB9F3CFF894FFCF5D
:00000001FF
