:100000000C9434000C9446000C9446000C9446006A
:100010000C9446000C9446000C9446000C94460048
:100020000C9446000C9446000C9446000C94460038
:100030000C9446000C9446000C9446000C94460028
:100040000C9446000C9446000C9446000C94460018
:100050000C9446000C9446000C9446000C94460008
:100060000C9446000C94460011241FBECFEFD8E03C
:10007000DEBFCDBF21E0A0E0B1E001C01D92A23003
:10008000B207E1F70E945E000C94EA000C940000B5
:1000900086E997EE909385008093840081E086BB8B
:1000A0001092800084E080938100B09BFECF10927C
:1000B00080001092810081E086BB089584B18FEFAB
:1000C00084B986E997EE909385008093840010921E
:1000D000800084E0809381007894EE24E394F12CF6
:1000E0009AE0C92ED12C22E0B22EC2E0D0E085B138
:1000F00087010C2E01C0000F0A94EAF7802B85B906
:100100000E94480080910001909101010196B60182
:100110000E94C2009093010180930001892B19F481
:1001200085B18B2585B985B10095082305B9219640
:10013000C630D105E1F6C5E0D0E085B187010C2ECF
:1001400001C0000F0A94EAF7802B85B90E9448008D
:1001500080910001909101010196B6010E94C200B8
:100160009093010180930001892B19F485B18B25AF
:1001700085B985B10095082305B92197C230D1050D
:10018000E1F6B3CF97FB072E16F4009407D077FD66
:1001900009D00E94D60007FC05D03EF490958195C9
:1001A0009F4F0895709561957F4F0895AA1BBB1BC3
:1001B00051E107C0AA1FBB1FA617B70710F0A61B67
:1001C000B70B881F991F5A95A9F780959095BC0188
:0801D000CD010895F894FFCF62
:00000001FF
