:100000000C9434000C9446000C9446000C9446006A
:100010000C9446000C9446000C9446000C94460048
:100020000C9446000C9446000C9446000C94460038
:100030000C9446000C9446000C9446000C94460028
:100040000C9448000C9446000C9446000C94460016
:100050000C9446000C9446000C9446000C94460008
:100060000C9446000C94460011241FBECFEFD8E03C
:10007000DEBFCDBF21E0A0E0B1E001C01D92A23003
:10008000B207E1F70E9475000C94AA000C940000DE
:100090001F920F920FB60F9211245F936F937F936D
:1000A0008F939F93AF93BF9386E086BD80910001AD
:1000B00090910101019669E170E00E9482009093A5
:1000C000010180930001892B21F495B180E28927F9
:1000D00085B9BF91AF919F918F917F916F915F9102
:1000E0000F900FBE0F901F90189584B18FEF84B9B9
:1000F00086E086BD14BC84E085BD81E080936E00FF
:100100007894FFCF97FB072E16F4009407D077FD65
:1001100009D00E94960007FC05D03EF49095819589
:100120009F4F0895709561957F4F0895AA1BBB1B43
:1001300051E107C0AA1FBB1FA617B70710F0A61BE7
:10014000B70B881F991F5A95A9F780959095BC0108
:08015000CD010895F894FFCFE2
:00000001FF
