:100000000C9434000C9446000C9446000C9446006A
:100010000C9446000C9446000C9446000C94460048
:100020000C9446000C9446000C9446000C94460038
:100030000C9446000C9475000C9446000C944600F9
:100040000C9448000C9446000C9446000C94460016
:100050000C9446000C9446000C9446000C94460008
:100060000C9446000C94460011241FBECFEFD8E03C
:10007000DEBFCDBF21E0A0E0B1E001C01D92A43001
:10008000B207E1F70E948D000C94CE000C940000A2
:100090001F920F920FB60F9211245F936F937F936D
:1000A0008F939F93AF93BF9380910201909103012F
:1000B00001966DE070E00E94A6009093030180938A
:1000C0000201892B31F495B180E2892785B98BEC47
:1000D00086BDBF91AF919F918F917F916F915F91FD
:1000E0000F900FBE0F901F9018951F920F920FB692
:1000F0000F9211248F939F9395B180E1892785B941
:100100008EEE95E890938500809384009F918F9167
:100110000F900FBE0F901F90189584B18FEF84B988
:100120008BEC86BD14BC84E085BD2EEE35E83093A3
:10013000850020938400109280008093810081E0EC
:1001400080936F0080936E007894FFCF97FB072E0B
:1001500016F4009407D077FD09D00E94BA0007FC7E
:1001600005D03EF4909581959F4F089570956195C7
:100170007F4F0895AA1BBB1B51E107C0AA1FBB1FDD
:10018000A617B70710F0A61BB70B881F991F5A9523
:10019000A9F780959095BC01CD010895F894FFCF03
:00000001FF
