:100000000C9434000C943E000C943E000C943E0082
:100010000C943E000C943E000C943E000C943E0068
:100020000C943E000C943E000C943E000C943E0058
:100030000C943E000C943E000C943E000C943E0048
:100040000C943E000C943E000C943E000C943E0038
:100050000C943E000C943E000C943E000C943E0028
:100060000C943E000C943E0011241FBECFEFD8E04C
:10007000DEBFCDBF0E9463000C94B0000C94000062
:100080009093C5008093C40088E18093C10086E00E
:100090008093C20008959091C10098609093C10030
:1000A0008093C6008091C00085FFFCCF08958091A9
:1000B000C10080618093C1008091C00087FFFCCFA8
:1000C0008091C600089587E690E00E944000CAE152
:1000D000D0E00E9457009FEB980F9A3148F4082E09
:1000E000000C990BCE97BE010E9488008F5B0DC05B
:1000F0009FE9980F9A3148F4082E000C990B8E5501
:100100009109BE010E9488008F590E944B00E1CFE7
:1001100097FB072E16F4009407D077FD09D00E94B4
:100120009C0007FC05D03EF4909581959F4F089563
:10013000709561957F4F0895AA1BBB1B51E107C0C5
:10014000AA1FBB1FA617B70710F0A61BB70B881F67
:10015000991F5A95A9F780959095BC01CD010895F6
:04016000F894FFCF41
:00000001FF
